{
  "_format": "hh-sol-artifact-1",
  "contractName": "AsaliTrace",
  "sourceName": "contracts/AsaliTrace.sol",
  "abi": [
    {
      "anonymous": false,
      "inputs": [
        {
          "indexed": false,
          "internalType": "string",
          "name": "batchId",
          "type": "string"
        },
        {
          "indexed": false,
          "internalType": "string",
          "name": "description",
          "type": "string"
        },
        {
          "indexed": true,
          "internalType": "address",
          "name": "creator",
          "type": "address"
        }
      ],
      "name": "BatchCreated",
      "type": "event"
    },
    {
      "anonymous": false,
      "inputs": [
        {
          "indexed": false,
          "internalType": "string",
          "name": "certId",
          "type": "string"
        },
        {
          "indexed": false,
          "internalType": "string",
          "name": "batchId",
          "type": "string"
        },
        {
          "indexed": false,
          "internalType": "string",
          "name": "issuer",
          "type": "string"
        }
      ],
      "name": "CertificateIssued",
      "type": "event"
    },
    {
      "anonymous": false,
      "inputs": [
        {
          "indexed": false,
          "internalType": "string",
          "name": "testId",
          "type": "string"
        },
        {
          "indexed": false,
          "internalType": "string",
          "name": "batchId",
          "type": "string"
        },
        {
          "indexed": false,
          "internalType": "string",
          "name": "result",
          "type": "string"
        }
      ],
      "name": "LabTestAdded",
      "type": "event"
    },
    {
      "inputs": [
        {
          "internalType": "string",
          "name": "_testId",
          "type": "string"
        },
        {
          "internalType": "string",
          "name": "_batchId",
          "type": "string"
        },
        {
          "internalType": "string",
          "name": "_result",
          "type": "string"
        }
      ],
      "name": "addLabTest",
      "outputs": [],
      "stateMutability": "nonpayable",
      "type": "function"
    },
    {
      "inputs": [
        {
          "internalType": "string",
          "name": "_batchId",
          "type": "string"
        },
        {
          "internalType": "string",
          "name": "_description",
          "type": "string"
        }
      ],
      "name": "createBatch",
      "outputs": [],
      "stateMutability": "nonpayable",
      "type": "function"
    },
    {
      "inputs": [
        {
          "internalType": "string",
          "name": "_batchId",
          "type": "string"
        }
      ],
      "name": "getBatch",
      "outputs": [
        {
          "components": [
            {
              "internalType": "string",
              "name": "batchId",
              "type": "string"
            },
            {
              "internalType": "string",
              "name": "description",
              "type": "string"
            },
            {
              "internalType": "uint256",
              "name": "timestamp",
              "type": "uint256"
            },
            {
              "internalType": "address",
              "name": "createdBy",
              "type": "address"
            }
          ],
          "internalType": "struct AsaliTrace.Batch",
          "name": "",
          "type": "tuple"
        }
      ],
      "stateMutability": "view",
      "type": "function"
    },
    {
      "inputs": [
        {
          "internalType": "string",
          "name": "_certId",
          "type": "string"
        }
      ],
      "name": "getCertificate",
      "outputs": [
        {
          "components": [
            {
              "internalType": "string",
              "name": "certId",
              "type": "string"
            },
            {
              "internalType": "string",
              "name": "batchId",
              "type": "string"
            },
            {
              "internalType": "string",
              "name": "issuer",
              "type": "string"
            },
            {
              "internalType": "uint256",
              "name": "timestamp",
              "type": "uint256"
            }
          ],
          "internalType": "struct AsaliTrace.Certificate",
          "name": "",
          "type": "tuple"
        }
      ],
      "stateMutability": "view",
      "type": "function"
    },
    {
      "inputs": [
        {
          "internalType": "string",
          "name": "_testId",
          "type": "string"
        }
      ],
      "name": "getLabTest",
      "outputs": [
        {
          "components": [
            {
              "internalType": "string",
              "name": "testId",
              "type": "string"
            },
            {
              "internalType": "string",
              "name": "batchId",
              "type": "string"
            },
            {
              "internalType": "string",
              "name": "result",
              "type": "string"
            },
            {
              "internalType": "uint256",
              "name": "timestamp",
              "type": "uint256"
            }
          ],
          "internalType": "struct AsaliTrace.LabTest",
          "name": "",
          "type": "tuple"
        }
      ],
      "stateMutability": "view",
      "type": "function"
    },
    {
      "inputs": [
        {
          "internalType": "string",
          "name": "_certId",
          "type": "string"
        },
        {
          "internalType": "string",
          "name": "_batchId",
          "type": "string"
        },
        {
          "internalType": "string",
          "name": "_issuer",
          "type": "string"
        }
      ],
      "name": "issueCertificate",
      "outputs": [],
      "stateMutability": "nonpayable",
      "type": "function"
    }
  ],
  "bytecode": "0x608060405234801561001057600080fd5b506119db806100206000396000f3fe608060405234801561001057600080fd5b50600436106100625760003560e01c806392b8f02114610067578063beec1caa14610083578063ed0f2e751461009f578063f3eca0f3146100cf578063f9ca4274146100eb578063fd206f091461011b575b600080fd5b610081600480360381019061007c9190610ec0565b61014b565b005b61009d60048036038101906100989190610f38565b6102d7565b005b6100b960048036038101906100b49190610fdf565b61046c565b6040516100c69190611131565b60405180910390f35b6100e960048036038101906100e49190610f38565b6106c8565b005b61010560048036038101906101009190610fdf565b61085d565b60405161011291906111fe565b60405180910390f35b61013560048036038101906101309190610fdf565b610a7c565b6040516101429190611291565b60405180910390f35b6000808360405161015c91906112ef565b908152602001604051809103902060020154146101ae576040517f08c379a00000000000000000000000000000000000000000000000000000000081526004016101a590611363565b60405180910390fd5b60405180608001604052808381526020018281526020014281526020013373ffffffffffffffffffffffffffffffffffffffff168152506000836040516101f591906112ef565b90815260200160405180910390206000820151816000019081610218919061158f565b50602082015181600101908161022e919061158f565b506040820151816002015560608201518160030160006101000a81548173ffffffffffffffffffffffffffffffffffffffff021916908373ffffffffffffffffffffffffffffffffffffffff1602179055509050503373ffffffffffffffffffffffffffffffffffffffff167f14a4819b534290cb8ccfb4060d5410e04c15b9493bccae224d5b9ae9e6f939d083836040516102cb92919061169a565b60405180910390a25050565b600080836040516102e891906112ef565b9081526020016040518091039020600201540361033a576040517f08c379a00000000000000000000000000000000000000000000000000000000081526004016103319061171d565b60405180910390fd5b600060028460405161034c91906112ef565b9081526020016040518091039020600301541461039e576040517f08c379a000000000000000000000000000000000000000000000000000000000815260040161039590611789565b60405180910390fd5b6040518060800160405280848152602001838152602001828152602001428152506002846040516103cf91906112ef565b908152602001604051809103902060008201518160000190816103f2919061158f565b506020820151816001019081610408919061158f565b50604082015181600201908161041e919061158f565b50606082015181600301559050507fc9aed1c64acf67836d70d23befa83b398ae1cc3d4dfae56bfe219d38128dd24383838360405161045f939291906117a9565b60405180910390a1505050565b610474610cd8565b600060028360405161048691906112ef565b908152602001604051809103902060030154036104d8576040517f08c379a00000000000000000000000000000000000000000000000000000000081526004016104cf90611841565b60405180910390fd5b6002826040516104e891906112ef565b9081526020016040518091039020604051806080016040529081600082018054610511906113b2565b80601f016020809104026020016040519081016040528092919081815260200182805461053d906113b2565b801561058a5780601f1061055f5761010080835404028352916020019161058a565b820191906000526020600020905b81548152906001019060200180831161056d57829003601f168201915b505050505081526020016001820180546105a3906113b2565b80601f01602080910402602001604051908101604052809291908181526020018280546105cf906113b2565b801561061c5780601f106105f15761010080835404028352916020019161061c565b820191906000526020600020905b8154815290600101906020018083116105ff57829003601f168201915b50505050508152602001600282018054610635906113b2565b80601f0160208091040260200160405190810160405280929190818152602001828054610661906113b2565b80156106ae5780601f10610683576101008083540402835291602001916106ae565b820191906000526020600020905b81548152906001019060200180831161069157829003601f168201915b505050505081526020016003820154815250509050919050565b600080836040516106d991906112ef565b9081526020016040518091039020600201540361072b576040517f08c379a00000000000000000000000000000000000000000000000000000000081526004016107229061171d565b60405180910390fd5b600060018460405161073d91906112ef565b9081526020016040518091039020600301541461078f576040517f08c379a0000000000000000000000000000000000000000000000000000000008152600401610786906118ad565b60405180910390fd5b6040518060800160405280848152602001838152602001828152602001428152506001846040516107c091906112ef565b908152602001604051809103902060008201518160000190816107e3919061158f565b5060208201518160010190816107f9919061158f565b50604082015181600201908161080f919061158f565b50606082015181600301559050507f5584054b5f7fbbc789c0d60881894db19b1c0257e46d9685831dab69f5408679838383604051610850939291906117a9565b60405180910390a1505050565b610865610d00565b6000808360405161087691906112ef565b908152602001604051809103902060020154036108c8576040517f08c379a00000000000000000000000000000000000000000000000000000000081526004016108bf90611919565b60405180910390fd5b6000826040516108d891906112ef565b9081526020016040518091039020604051806080016040529081600082018054610901906113b2565b80601f016020809104026020016040519081016040528092919081815260200182805461092d906113b2565b801561097a5780601f1061094f5761010080835404028352916020019161097a565b820191906000526020600020905b81548152906001019060200180831161095d57829003601f168201915b50505050508152602001600182018054610993906113b2565b80601f01602080910402602001604051908101604052809291908181526020018280546109bf906113b2565b8015610a0c5780601f106109e157610100808354040283529160200191610a0c565b820191906000526020600020905b8154815290600101906020018083116109ef57829003601f168201915b50505050508152602001600282015481526020016003820160009054906101000a900473ffffffffffffffffffffffffffffffffffffffff1673ffffffffffffffffffffffffffffffffffffffff1673ffffffffffffffffffffffffffffffffffffffff16815250509050919050565b610a84610d3e565b6000600183604051610a9691906112ef565b90815260200160405180910390206003015403610ae8576040517f08c379a0000000000000000000000000000000000000000000000000000000008152600401610adf90611985565b60405180910390fd5b600182604051610af891906112ef565b9081526020016040518091039020604051806080016040529081600082018054610b21906113b2565b80601f0160208091040260200160405190810160405280929190818152602001828054610b4d906113b2565b8015610b9a5780601f10610b6f57610100808354040283529160200191610b9a565b820191906000526020600020905b815481529060010190602001808311610b7d57829003601f168201915b50505050508152602001600182018054610bb3906113b2565b80601f0160208091040260200160405190810160405280929190818152602001828054610bdf906113b2565b8015610c2c5780601f10610c0157610100808354040283529160200191610c2c565b820191906000526020600020905b815481529060010190602001808311610c0f57829003601f168201915b50505050508152602001600282018054610c45906113b2565b80601f0160208091040260200160405190810160405280929190818152602001828054610c71906113b2565b8015610cbe5780601f10610c9357610100808354040283529160200191610cbe565b820191906000526020600020905b815481529060010190602001808311610ca157829003601f168201915b505050505081526020016003820154815250509050919050565b6040518060800160405280606081526020016060815260200160608152602001600081525090565b6040518060800160405280606081526020016060815260200160008152602001600073ffffffffffffffffffffffffffffffffffffffff1681525090565b6040518060800160405280606081526020016060815260200160608152602001600081525090565b6000604051905090565b600080fd5b600080fd5b600080fd5b600080fd5b6000601f19601f8301169050919050565b7f4e487b7100000000000000000000000000000000000000000000000000000000600052604160045260246000fd5b610dcd82610d84565b810181811067ffffffffffffffff82111715610dec57610deb610d95565b5b80604052505050565b6000610dff610d66565b9050610e0b8282610dc4565b919050565b600067ffffffffffffffff821115610e2b57610e2a610d95565b5b610e3482610d84565b9050602081019050919050565b82818337600083830152505050565b6000610e63610e5e84610e10565b610df5565b905082815260208101848484011115610e7f57610e7e610d7f565b5b610e8a848285610e41565b509392505050565b600082601f830112610ea757610ea6610d7a565b5b8135610eb7848260208601610e50565b91505092915050565b60008060408385031215610ed757610ed6610d70565b5b600083013567ffffffffffffffff811115610ef557610ef4610d75565b5b610f0185828601610e92565b925050602083013567ffffffffffffffff811115610f2257610f21610d75565b5b610f2e85828601610e92565b9150509250929050565b600080600060608486031215610f5157610f50610d70565b5b600084013567ffffffffffffffff811115610f6f57610f6e610d75565b5b610f7b86828701610e92565b935050602084013567ffffffffffffffff811115610f9c57610f9b610d75565b5b610fa886828701610e92565b925050604084013567ffffffffffffffff811115610fc957610fc8610d75565b5b610fd586828701610e92565b9150509250925092565b600060208284031215610ff557610ff4610d70565b5b600082013567ffffffffffffffff81111561101357611012610d75565b5b61101f84828501610e92565b91505092915050565b600081519050919050565b600082825260208201905092915050565b60005b83811015611062578082015181840152602081019050611047565b60008484015250505050565b600061107982611028565b6110838185611033565b9350611093818560208601611044565b61109c81610d84565b840191505092915050565b6000819050919050565b6110ba816110a7565b82525050565b600060808301600083015184820360008601526110dd828261106e565b915050602083015184820360208601526110f7828261106e565b91505060408301518482036040860152611111828261106e565b915050606083015161112660608601826110b1565b508091505092915050565b6000602082019050818103600083015261114b81846110c0565b905092915050565b600073ffffffffffffffffffffffffffffffffffffffff82169050919050565b600061117e82611153565b9050919050565b61118e81611173565b82525050565b600060808301600083015184820360008601526111b1828261106e565b915050602083015184820360208601526111cb828261106e565b91505060408301516111e060408601826110b1565b5060608301516111f36060860182611185565b508091505092915050565b600060208201905081810360008301526112188184611194565b905092915050565b6000608083016000830151848203600086015261123d828261106e565b91505060208301518482036020860152611257828261106e565b91505060408301518482036040860152611271828261106e565b915050606083015161128660608601826110b1565b508091505092915050565b600060208201905081810360008301526112ab8184611220565b905092915050565b600081905092915050565b60006112c982611028565b6112d381856112b3565b93506112e3818560208601611044565b80840191505092915050565b60006112fb82846112be565b915081905092915050565b600082825260208201905092915050565b7f426174636820616c726561647920657869737473000000000000000000000000600082015250565b600061134d601483611306565b915061135882611317565b602082019050919050565b6000602082019050818103600083015261137c81611340565b9050919050565b7f4e487b7100000000000000000000000000000000000000000000000000000000600052602260045260246000fd5b600060028204905060018216806113ca57607f821691505b6020821081036113dd576113dc611383565b5b50919050565b60008190508160005260206000209050919050565b60006020601f8301049050919050565b600082821b905092915050565b6000600883026114457fffffffffffffffffffffffffffffffffffffffffffffffffffffffffffffffff82611408565b61144f8683611408565b95508019841693508086168417925050509392505050565b6000819050919050565b600061148c611487611482846110a7565b611467565b6110a7565b9050919050565b6000819050919050565b6114a683611471565b6114ba6114b282611493565b848454611415565b825550505050565b600090565b6114cf6114c2565b6114da81848461149d565b505050565b5b818110156114fe576114f36000826114c7565b6001810190506114e0565b5050565b601f82111561154357611514816113e3565b61151d846113f8565b8101602085101561152c578190505b611540611538856113f8565b8301826114df565b50505b505050565b600082821c905092915050565b600061156660001984600802611548565b1980831691505092915050565b600061157f8383611555565b9150826002028217905092915050565b61159882611028565b67ffffffffffffffff8111156115b1576115b0610d95565b5b6115bb82546113b2565b6115c6828285611502565b600060209050601f8311600181146115f957600084156115e7578287015190505b6115f18582611573565b865550611659565b601f198416611607866113e3565b60005b8281101561162f5784890151825560018201915060208501945060208101905061160a565b8683101561164c5784890151611648601f891682611555565b8355505b6001600288020188555050505b505050505050565b600061166c82611028565b6116768185611306565b9350611686818560208601611044565b61168f81610d84565b840191505092915050565b600060408201905081810360008301526116b48185611661565b905081810360208301526116c88184611661565b90509392505050565b7f426174636820646f6573206e6f74206578697374000000000000000000000000600082015250565b6000611707601483611306565b9150611712826116d1565b602082019050919050565b60006020820190508181036000830152611736816116fa565b9050919050565b7f436572746966696361746520616c726561647920657869737473000000000000600082015250565b6000611773601a83611306565b915061177e8261173d565b602082019050919050565b600060208201905081810360008301526117a281611766565b9050919050565b600060608201905081810360008301526117c38186611661565b905081810360208301526117d78185611661565b905081810360408301526117eb8184611661565b9050949350505050565b7f4365727469666963617465206e6f7420666f756e640000000000000000000000600082015250565b600061182b601583611306565b9150611836826117f5565b602082019050919050565b6000602082019050818103600083015261185a8161181e565b9050919050565b7f5465737420616c72656164792065786973747300000000000000000000000000600082015250565b6000611897601383611306565b91506118a282611861565b602082019050919050565b600060208201905081810360008301526118c68161188a565b9050919050565b7f4261746368206e6f7420666f756e640000000000000000000000000000000000600082015250565b6000611903600f83611306565b915061190e826118cd565b602082019050919050565b60006020820190508181036000830152611932816118f6565b9050919050565b7f4c61622074657374206e6f7420666f756e640000000000000000000000000000600082015250565b600061196f601283611306565b915061197a82611939565b602082019050919050565b6000602082019050818103600083015261199e81611962565b905091905056fea2646970667358221220538219572456e68caecb6f82d44856e13201f4fc29e0d094f40052a4f9b0ded964736f6c63430008130033",
  "linkReferences": {},
  "deployedLinkReferences": {}
}